{
  "contractName": "Hodl",
  "abi": [
    {
      "constant": false,
      "inputs": [
        {
          "name": "tokenAddress",
          "type": "address"
        }
      ],
      "name": "getTokens",
      "outputs": [],
      "payable": false,
      "stateMutability": "nonpayable",
      "type": "function"
    },
    {
      "constant": true,
      "inputs": [
        {
          "name": "tokenAddress",
          "type": "address"
        }
      ],
      "name": "getTimestamp",
      "outputs": [
        {
          "name": "",
          "type": "uint256"
        }
      ],
      "payable": false,
      "stateMutability": "view",
      "type": "function"
    },
    {
      "constant": false,
      "inputs": [
        {
          "name": "tokenAddress",
          "type": "address"
        },
        {
          "name": "amount",
          "type": "uint256"
        },
        {
          "name": "timestamp",
          "type": "uint256"
        }
      ],
      "name": "hodlTokens",
      "outputs": [],
      "payable": false,
      "stateMutability": "nonpayable",
      "type": "function"
    },
    {
      "anonymous": false,
      "inputs": [
        {
          "indexed": true,
          "name": "sender",
          "type": "address"
        },
        {
          "indexed": true,
          "name": "tokenAddress",
          "type": "address"
        },
        {
          "indexed": false,
          "name": "amount",
          "type": "uint256"
        }
      ],
      "name": "Hodling",
      "type": "event"
    },
    {
      "anonymous": false,
      "inputs": [
        {
          "indexed": true,
          "name": "sender",
          "type": "address"
        },
        {
          "indexed": true,
          "name": "tokenAddress",
          "type": "address"
        },
        {
          "indexed": false,
          "name": "amount",
          "type": "uint256"
        }
      ],
      "name": "TokenReturn",
      "type": "event"
    }
  ],
  "bytecode": "0x6060604052341561000f57600080fd5b6109578061001e6000396000f300606060405260043610610057576000357c0100000000000000000000000000000000000000000000000000000000900463ffffffff168063450efe211461005c5780638bf57f4e146100955780638e80ade9146100e2575b600080fd5b341561006757600080fd5b610093600480803573ffffffffffffffffffffffffffffffffffffffff1690602001909190505061012d565b005b34156100a057600080fd5b6100cc600480803573ffffffffffffffffffffffffffffffffffffffff16906020019091905050610543565b6040518082815260200191505060405180910390f35b34156100ed57600080fd5b61012b600480803573ffffffffffffffffffffffffffffffffffffffff169060200190919080359060200190919080359060200190919050506105c9565b005b600080600073ffffffffffffffffffffffffffffffffffffffff168373ffffffffffffffffffffffffffffffffffffffff161415151561016c57600080fd5b60008060003373ffffffffffffffffffffffffffffffffffffffff1673ffffffffffffffffffffffffffffffffffffffff16815260200190815260200160002060008573ffffffffffffffffffffffffffffffffffffffff1673ffffffffffffffffffffffffffffffffffffffff168152602001908152602001600020541115156101f657600080fd5b600160003373ffffffffffffffffffffffffffffffffffffffff1673ffffffffffffffffffffffffffffffffffffffff16815260200190815260200160002060008473ffffffffffffffffffffffffffffffffffffffff1673ffffffffffffffffffffffffffffffffffffffff16815260200190815260200160002054421015151561028157600080fd5b8291506000803373ffffffffffffffffffffffffffffffffffffffff1673ffffffffffffffffffffffffffffffffffffffff16815260200190815260200160002060008473ffffffffffffffffffffffffffffffffffffffff1673ffffffffffffffffffffffffffffffffffffffff1681526020019081526020016000205490506000803373ffffffffffffffffffffffffffffffffffffffff1673ffffffffffffffffffffffffffffffffffffffff16815260200190815260200160002060008473ffffffffffffffffffffffffffffffffffffffff1673ffffffffffffffffffffffffffffffffffffffff16815260200190815260200160002060009055600160003373ffffffffffffffffffffffffffffffffffffffff1673ffffffffffffffffffffffffffffffffffffffff16815260200190815260200160002060008473ffffffffffffffffffffffffffffffffffffffff1673ffffffffffffffffffffffffffffffffffffffff16815260200190815260200160002060009055600115158273ffffffffffffffffffffffffffffffffffffffff1663a9059cbb33846000604051602001526040518363ffffffff167c0100000000000000000000000000000000000000000000000000000000028152600401808373ffffffffffffffffffffffffffffffffffffffff1673ffffffffffffffffffffffffffffffffffffffff16815260200182815260200192505050602060405180830381600087803b15156104b057600080fd5b6102c65a03f115156104c157600080fd5b5050506040518051905015151415156104d957600080fd5b8273ffffffffffffffffffffffffffffffffffffffff163373ffffffffffffffffffffffffffffffffffffffff167f70859da8c757491f3d7cd90257fbb87bf6a0b4687441b05fa77ce6d4d4da90cd836040518082815260200191505060405180910390a3505050565b6000600160003373ffffffffffffffffffffffffffffffffffffffff1673ffffffffffffffffffffffffffffffffffffffff16815260200190815260200160002060008373ffffffffffffffffffffffffffffffffffffffff1673ffffffffffffffffffffffffffffffffffffffff168152602001908152602001600020549050919050565b60008073ffffffffffffffffffffffffffffffffffffffff168473ffffffffffffffffffffffffffffffffffffffff161415151561060657600080fd5b6000831415151561061657600080fd5b6000821415151561062657600080fd5b60008060003373ffffffffffffffffffffffffffffffffffffffff1673ffffffffffffffffffffffffffffffffffffffff16815260200190815260200160002060008673ffffffffffffffffffffffffffffffffffffffff1673ffffffffffffffffffffffffffffffffffffffff168152602001908152602001600020541415156106b057600080fd5b826000803373ffffffffffffffffffffffffffffffffffffffff1673ffffffffffffffffffffffffffffffffffffffff16815260200190815260200160002060008673ffffffffffffffffffffffffffffffffffffffff1673ffffffffffffffffffffffffffffffffffffffff1681526020019081526020016000208190555081600160003373ffffffffffffffffffffffffffffffffffffffff1673ffffffffffffffffffffffffffffffffffffffff16815260200190815260200160002060008673ffffffffffffffffffffffffffffffffffffffff1673ffffffffffffffffffffffffffffffffffffffff16815260200190815260200160002081905550839050600115158173ffffffffffffffffffffffffffffffffffffffff166323b872dd3330876000604051602001526040518463ffffffff167c0100000000000000000000000000000000000000000000000000000000028152600401808473ffffffffffffffffffffffffffffffffffffffff1673ffffffffffffffffffffffffffffffffffffffff1681526020018373ffffffffffffffffffffffffffffffffffffffff1673ffffffffffffffffffffffffffffffffffffffff1681526020018281526020019350505050602060405180830381600087803b151561089757600080fd5b6102c65a03f115156108a857600080fd5b5050506040518051905015151415156108c057600080fd5b8373ffffffffffffffffffffffffffffffffffffffff163373ffffffffffffffffffffffffffffffffffffffff167ff19fefbc884d6e8adb85549a6c477eb06ac5f02933f7358fd73980a1f9a21fc6856040518082815260200191505060405180910390a3505050505600a165627a7a7230582034a14c12a74b1fff2954eb3a654bfdaac191969855365dea22177e7ee5e94d170029",
  "source": "pragma solidity ^0.4.2;\r\n\r\nimport \"./ERC20.sol\";\r\n\r\ncontract Hodl {\r\n\r\n    mapping(address => mapping(address => uint)) private amounts;\r\n    mapping(address => mapping(address => uint)) private timestamps;\r\n\r\n    event Hodling(address indexed sender, address indexed tokenAddress, uint256 amount);\r\n    event TokenReturn(address indexed sender, address indexed tokenAddress, uint256 amount);\r\n\r\n    function hodlTokens(address tokenAddress, uint256 amount, uint timestamp) public {\r\n        require(tokenAddress != address(0));\r\n        require(amount != uint256(0));\r\n        require(timestamp != uint(0));\r\n        require(amounts[msg.sender][tokenAddress] == 0);\r\n\r\n        amounts[msg.sender][tokenAddress] = amount;\r\n        timestamps[msg.sender][tokenAddress] = timestamp;\r\n\r\n        ERC20 erc20 = ERC20(tokenAddress);\r\n        require(erc20.transferFrom(msg.sender, this, amount) == true);\r\n\r\n        Hodling(msg.sender, tokenAddress, amount);\r\n    }\r\n\r\n    function getTokens(address tokenAddress) public {\r\n        require(tokenAddress != address(0));\r\n        require(amounts[msg.sender][tokenAddress] > 0);\r\n        require(now >= timestamps[msg.sender][tokenAddress]);\r\n\r\n        ERC20 erc20 = ERC20(tokenAddress);\r\n        uint256 amount = amounts[msg.sender][tokenAddress];\r\n\r\n        delete amounts[msg.sender][tokenAddress];\r\n        delete timestamps[msg.sender][tokenAddress];\r\n        require(erc20.transfer(msg.sender, amount) == true);\r\n\r\n        TokenReturn(msg.sender, tokenAddress, amount);\r\n    }\r\n\r\n    function getTimestamp(address tokenAddress) public view returns (uint) {\r\n        return timestamps[msg.sender][tokenAddress];\r\n    }\r\n\r\n}",
  "sourcePath": "/mnt/d/dev/gohodl/contracts/Hodl.sol",
  "compiler": {
    "name": "solc",
    "version": "0.4.18+commit.9cf6e910.Emscripten.clang"
  },
  "schemaVersion": "1.0.1",
  "updatedAt": "2018-01-23T23:43:18.302Z"
}