{
  "contractName": "LinkToken",
  "abi": [
    {
      "constant": true,
      "inputs": [],
      "name": "name",
      "outputs": [
        {
          "name": "",
          "type": "string"
        }
      ],
      "payable": false,
      "stateMutability": "view",
      "type": "function"
    },
    {
      "constant": false,
      "inputs": [
        {
          "name": "_spender",
          "type": "address"
        },
        {
          "name": "_value",
          "type": "uint256"
        }
      ],
      "name": "approve",
      "outputs": [
        {
          "name": "",
          "type": "bool"
        }
      ],
      "payable": false,
      "stateMutability": "nonpayable",
      "type": "function"
    },
    {
      "constant": true,
      "inputs": [],
      "name": "totalSupply",
      "outputs": [
        {
          "name": "",
          "type": "uint256"
        }
      ],
      "payable": false,
      "stateMutability": "view",
      "type": "function"
    },
    {
      "constant": false,
      "inputs": [
        {
          "name": "_from",
          "type": "address"
        },
        {
          "name": "_to",
          "type": "address"
        },
        {
          "name": "_value",
          "type": "uint256"
        }
      ],
      "name": "transferFrom",
      "outputs": [
        {
          "name": "",
          "type": "bool"
        }
      ],
      "payable": false,
      "stateMutability": "nonpayable",
      "type": "function"
    },
    {
      "constant": true,
      "inputs": [],
      "name": "decimals",
      "outputs": [
        {
          "name": "",
          "type": "uint8"
        }
      ],
      "payable": false,
      "stateMutability": "view",
      "type": "function"
    },
    {
      "constant": false,
      "inputs": [
        {
          "name": "_to",
          "type": "address"
        },
        {
          "name": "_value",
          "type": "uint256"
        },
        {
          "name": "_data",
          "type": "bytes"
        }
      ],
      "name": "transferAndCall",
      "outputs": [
        {
          "name": "success",
          "type": "bool"
        }
      ],
      "payable": false,
      "stateMutability": "nonpayable",
      "type": "function"
    },
    {
      "constant": false,
      "inputs": [
        {
          "name": "_spender",
          "type": "address"
        },
        {
          "name": "_subtractedValue",
          "type": "uint256"
        }
      ],
      "name": "decreaseApproval",
      "outputs": [
        {
          "name": "success",
          "type": "bool"
        }
      ],
      "payable": false,
      "stateMutability": "nonpayable",
      "type": "function"
    },
    {
      "constant": true,
      "inputs": [
        {
          "name": "_owner",
          "type": "address"
        }
      ],
      "name": "balanceOf",
      "outputs": [
        {
          "name": "balance",
          "type": "uint256"
        }
      ],
      "payable": false,
      "stateMutability": "view",
      "type": "function"
    },
    {
      "constant": true,
      "inputs": [],
      "name": "symbol",
      "outputs": [
        {
          "name": "",
          "type": "string"
        }
      ],
      "payable": false,
      "stateMutability": "view",
      "type": "function"
    },
    {
      "constant": false,
      "inputs": [
        {
          "name": "_to",
          "type": "address"
        },
        {
          "name": "_value",
          "type": "uint256"
        }
      ],
      "name": "transfer",
      "outputs": [
        {
          "name": "success",
          "type": "bool"
        }
      ],
      "payable": false,
      "stateMutability": "nonpayable",
      "type": "function"
    },
    {
      "constant": false,
      "inputs": [
        {
          "name": "_spender",
          "type": "address"
        },
        {
          "name": "_addedValue",
          "type": "uint256"
        }
      ],
      "name": "increaseApproval",
      "outputs": [
        {
          "name": "success",
          "type": "bool"
        }
      ],
      "payable": false,
      "stateMutability": "nonpayable",
      "type": "function"
    },
    {
      "constant": true,
      "inputs": [
        {
          "name": "_owner",
          "type": "address"
        },
        {
          "name": "_spender",
          "type": "address"
        }
      ],
      "name": "allowance",
      "outputs": [
        {
          "name": "remaining",
          "type": "uint256"
        }
      ],
      "payable": false,
      "stateMutability": "view",
      "type": "function"
    },
    {
      "inputs": [],
      "payable": false,
      "stateMutability": "nonpayable",
      "type": "constructor"
    },
    {
      "anonymous": false,
      "inputs": [
        {
          "indexed": true,
          "name": "from",
          "type": "address"
        },
        {
          "indexed": true,
          "name": "to",
          "type": "address"
        },
        {
          "indexed": false,
          "name": "value",
          "type": "uint256"
        },
        {
          "indexed": false,
          "name": "data",
          "type": "bytes"
        }
      ],
      "name": "Transfer",
      "type": "event"
    },
    {
      "anonymous": false,
      "inputs": [
        {
          "indexed": true,
          "name": "owner",
          "type": "address"
        },
        {
          "indexed": true,
          "name": "spender",
          "type": "address"
        },
        {
          "indexed": false,
          "name": "value",
          "type": "uint256"
        }
      ],
      "name": "Approval",
      "type": "event"
    },
    {
      "anonymous": false,
      "inputs": [
        {
          "indexed": true,
          "name": "from",
          "type": "address"
        },
        {
          "indexed": true,
          "name": "to",
          "type": "address"
        },
        {
          "indexed": false,
          "name": "value",
          "type": "uint256"
        }
      ],
      "name": "Transfer",
      "type": "event"
    }
  ],
  "bytecode": "0x6060604052341561000f57600080fd5b6b033b2e3c9fd0803ce8000000600160003373ffffffffffffffffffffffffffffffffffffffff1673ffffffffffffffffffffffffffffffffffffffff1681526020019081526020016000208190555061155f8061006e6000396000f3006060604052600436106100ba576000357c0100000000000000000000000000000000000000000000000000000000900463ffffffff16806306fdde03146100bf578063095ea7b31461014d57806318160ddd146101a757806323b872dd146101d0578063313ce567146102495780634000aea014610278578063661884631461031557806370a082311461036f57806395d89b41146103bc578063a9059cbb1461044a578063d73dd623146104a4578063dd62ed3e146104fe575b600080fd5b34156100ca57600080fd5b6100d261056a565b6040518080602001828103825283818151815260200191508051906020019080838360005b838110156101125780820151818401526020810190506100f7565b50505050905090810190601f16801561013f5780820380516001836020036101000a031916815260200191505b509250505060405180910390f35b341561015857600080fd5b61018d600480803573ffffffffffffffffffffffffffffffffffffffff169060200190919080359060200190919050506105a3565b604051808215151515815260200191505060405180910390f35b34156101b257600080fd5b6101ba61062d565b6040518082815260200191505060405180910390f35b34156101db57600080fd5b61022f600480803573ffffffffffffffffffffffffffffffffffffffff1690602001909190803573ffffffffffffffffffffffffffffffffffffffff1690602001909190803590602001909190505061063d565b604051808215151515815260200191505060405180910390f35b341561025457600080fd5b61025c6106c9565b604051808260ff1660ff16815260200191505060405180910390f35b341561028357600080fd5b6102fb600480803573ffffffffffffffffffffffffffffffffffffffff1690602001909190803590602001909190803590602001908201803590602001908080601f016020809104026020016040519081016040528093929190818152602001838380828437820191505050505050919050506106ce565b604051808215151515815260200191505060405180910390f35b341561032057600080fd5b610355600480803573ffffffffffffffffffffffffffffffffffffffff1690602001909190803590602001909190505061075a565b604051808215151515815260200191505060405180910390f35b341561037a57600080fd5b6103a6600480803573ffffffffffffffffffffffffffffffffffffffff169060200190919050506109eb565b6040518082815260200191505060405180910390f35b34156103c757600080fd5b6103cf610a34565b6040518080602001828103825283818151815260200191508051906020019080838360005b8381101561040f5780820151818401526020810190506103f4565b50505050905090810190601f16801561043c5780820380516001836020036101000a031916815260200191505b509250505060405180910390f35b341561045557600080fd5b61048a600480803573ffffffffffffffffffffffffffffffffffffffff16906020019091908035906020019091905050610a6d565b604051808215151515815260200191505060405180910390f35b34156104af57600080fd5b6104e4600480803573ffffffffffffffffffffffffffffffffffffffff16906020019091908035906020019091905050610af7565b604051808215151515815260200191505060405180910390f35b341561050957600080fd5b610554600480803573ffffffffffffffffffffffffffffffffffffffff1690602001909190803573ffffffffffffffffffffffffffffffffffffffff16906020019091905050610cf3565b6040518082815260200191505060405180910390f35b6040805190810160405280600e81526020017f546573744c696e6b20546f6b656e00000000000000000000000000000000000081525081565b600082600073ffffffffffffffffffffffffffffffffffffffff168173ffffffffffffffffffffffffffffffffffffffff161415801561060f57503073ffffffffffffffffffffffffffffffffffffffff168173ffffffffffffffffffffffffffffffffffffffff1614155b151561061a57600080fd5b6106248484610d7a565b91505092915050565b6b033b2e3c9fd0803ce800000081565b600082600073ffffffffffffffffffffffffffffffffffffffff168173ffffffffffffffffffffffffffffffffffffffff16141580156106a957503073ffffffffffffffffffffffffffffffffffffffff168173ffffffffffffffffffffffffffffffffffffffff1614155b15156106b457600080fd5b6106bf858585610e6c565b9150509392505050565b601281565b600083600073ffffffffffffffffffffffffffffffffffffffff168173ffffffffffffffffffffffffffffffffffffffff161415801561073a57503073ffffffffffffffffffffffffffffffffffffffff168173ffffffffffffffffffffffffffffffffffffffff1614155b151561074557600080fd5b61075085858561111c565b9150509392505050565b600080600260003373ffffffffffffffffffffffffffffffffffffffff1673ffffffffffffffffffffffffffffffffffffffff16815260200190815260200160002060008573ffffffffffffffffffffffffffffffffffffffff1673ffffffffffffffffffffffffffffffffffffffff1681526020019081526020016000205490508083111561086b576000600260003373ffffffffffffffffffffffffffffffffffffffff1673ffffffffffffffffffffffffffffffffffffffff16815260200190815260200160002060008673ffffffffffffffffffffffffffffffffffffffff1673ffffffffffffffffffffffffffffffffffffffff168152602001908152602001600020819055506108ff565b61087e838261122090919063ffffffff16565b600260003373ffffffffffffffffffffffffffffffffffffffff1673ffffffffffffffffffffffffffffffffffffffff16815260200190815260200160002060008673ffffffffffffffffffffffffffffffffffffffff1673ffffffffffffffffffffffffffffffffffffffff168152602001908152602001600020819055505b8373ffffffffffffffffffffffffffffffffffffffff163373ffffffffffffffffffffffffffffffffffffffff167f8c5be1e5ebec7d5bd14f71427d1e84f3dd0314c0f7b2291e5b200ac8c7c3b925600260003373ffffffffffffffffffffffffffffffffffffffff1673ffffffffffffffffffffffffffffffffffffffff16815260200190815260200160002060008873ffffffffffffffffffffffffffffffffffffffff1673ffffffffffffffffffffffffffffffffffffffff168152602001908152602001600020546040518082815260200191505060405180910390a3600191505092915050565b6000600160008373ffffffffffffffffffffffffffffffffffffffff1673ffffffffffffffffffffffffffffffffffffffff168152602001908152602001600020549050919050565b6040805190810160405280600481526020017f54494e4b0000000000000000000000000000000000000000000000000000000081525081565b600082600073ffffffffffffffffffffffffffffffffffffffff168173ffffffffffffffffffffffffffffffffffffffff1614158015610ad957503073ffffffffffffffffffffffffffffffffffffffff168173ffffffffffffffffffffffffffffffffffffffff1614155b1515610ae457600080fd5b610aee8484611239565b91505092915050565b6000610b8882600260003373ffffffffffffffffffffffffffffffffffffffff1673ffffffffffffffffffffffffffffffffffffffff16815260200190815260200160002060008673ffffffffffffffffffffffffffffffffffffffff1673ffffffffffffffffffffffffffffffffffffffff168152602001908152602001600020546113d490919063ffffffff16565b600260003373ffffffffffffffffffffffffffffffffffffffff1673ffffffffffffffffffffffffffffffffffffffff16815260200190815260200160002060008573ffffffffffffffffffffffffffffffffffffffff1673ffffffffffffffffffffffffffffffffffffffff168152602001908152602001600020819055508273ffffffffffffffffffffffffffffffffffffffff163373ffffffffffffffffffffffffffffffffffffffff167f8c5be1e5ebec7d5bd14f71427d1e84f3dd0314c0f7b2291e5b200ac8c7c3b925600260003373ffffffffffffffffffffffffffffffffffffffff1673ffffffffffffffffffffffffffffffffffffffff16815260200190815260200160002060008773ffffffffffffffffffffffffffffffffffffffff1673ffffffffffffffffffffffffffffffffffffffff168152602001908152602001600020546040518082815260200191505060405180910390a36001905092915050565b6000600260008473ffffffffffffffffffffffffffffffffffffffff1673ffffffffffffffffffffffffffffffffffffffff16815260200190815260200160002060008373ffffffffffffffffffffffffffffffffffffffff1673ffffffffffffffffffffffffffffffffffffffff16815260200190815260200160002054905092915050565b600081600260003373ffffffffffffffffffffffffffffffffffffffff1673ffffffffffffffffffffffffffffffffffffffff16815260200190815260200160002060008573ffffffffffffffffffffffffffffffffffffffff1673ffffffffffffffffffffffffffffffffffffffff168152602001908152602001600020819055508273ffffffffffffffffffffffffffffffffffffffff163373ffffffffffffffffffffffffffffffffffffffff167f8c5be1e5ebec7d5bd14f71427d1e84f3dd0314c0f7b2291e5b200ac8c7c3b925846040518082815260200191505060405180910390a36001905092915050565b600080600260008673ffffffffffffffffffffffffffffffffffffffff1673ffffffffffffffffffffffffffffffffffffffff16815260200190815260200160002060003373ffffffffffffffffffffffffffffffffffffffff1673ffffffffffffffffffffffffffffffffffffffff168152602001908152602001600020549050610f4083600160008873ffffffffffffffffffffffffffffffffffffffff1673ffffffffffffffffffffffffffffffffffffffff1681526020019081526020016000205461122090919063ffffffff16565b600160008773ffffffffffffffffffffffffffffffffffffffff1673ffffffffffffffffffffffffffffffffffffffff16815260200190815260200160002081905550610fd583600160008773ffffffffffffffffffffffffffffffffffffffff1673ffffffffffffffffffffffffffffffffffffffff168152602001908152602001600020546113d490919063ffffffff16565b600160008673ffffffffffffffffffffffffffffffffffffffff1673ffffffffffffffffffffffffffffffffffffffff1681526020019081526020016000208190555061102b838261122090919063ffffffff16565b600260008773ffffffffffffffffffffffffffffffffffffffff1673ffffffffffffffffffffffffffffffffffffffff16815260200190815260200160002060003373ffffffffffffffffffffffffffffffffffffffff1673ffffffffffffffffffffffffffffffffffffffff168152602001908152602001600020819055508373ffffffffffffffffffffffffffffffffffffffff168573ffffffffffffffffffffffffffffffffffffffff167fddf252ad1be2c89b69c2b068fc378daa952ba7f163c4a11628f55a4df523b3ef856040518082815260200191505060405180910390a360019150509392505050565b60006111288484611239565b508373ffffffffffffffffffffffffffffffffffffffff163373ffffffffffffffffffffffffffffffffffffffff167fe19260aff97b920c7df27010903aeb9c8d2be5d310a2c67824cf3f15396e4c1685856040518083815260200180602001828103825283818151815260200191508051906020019080838360005b838110156111c05780820151818401526020810190506111a5565b50505050905090810190601f1680156111ed5780820380516001836020036101000a031916815260200191505b50935050505060405180910390a3611204846113f2565b1561121557611214848484611405565b5b600190509392505050565b600082821115151561122e57fe5b818303905092915050565b600061128d82600160003373ffffffffffffffffffffffffffffffffffffffff1673ffffffffffffffffffffffffffffffffffffffff1681526020019081526020016000205461122090919063ffffffff16565b600160003373ffffffffffffffffffffffffffffffffffffffff1673ffffffffffffffffffffffffffffffffffffffff1681526020019081526020016000208190555061132282600160008673ffffffffffffffffffffffffffffffffffffffff1673ffffffffffffffffffffffffffffffffffffffff168152602001908152602001600020546113d490919063ffffffff16565b600160008573ffffffffffffffffffffffffffffffffffffffff1673ffffffffffffffffffffffffffffffffffffffff168152602001908152602001600020819055508273ffffffffffffffffffffffffffffffffffffffff163373ffffffffffffffffffffffffffffffffffffffff167fddf252ad1be2c89b69c2b068fc378daa952ba7f163c4a11628f55a4df523b3ef846040518082815260200191505060405180910390a36001905092915050565b60008082840190508381101515156113e857fe5b8091505092915050565b600080823b905060008111915050919050565b60008390508073ffffffffffffffffffffffffffffffffffffffff1663a4c0ed363385856040518463ffffffff167c0100000000000000000000000000000000000000000000000000000000028152600401808473ffffffffffffffffffffffffffffffffffffffff1673ffffffffffffffffffffffffffffffffffffffff16815260200183815260200180602001828103825283818151815260200191508051906020019080838360005b838110156114cc5780820151818401526020810190506114b1565b50505050905090810190601f1680156114f95780820380516001836020036101000a031916815260200191505b50945050505050600060405180830381600087803b151561151957600080fd5b6102c65a03f1151561152a57600080fd5b505050505050505600a165627a7a7230582018103a5c2301237650031e1869876b18052c38d0478c62897d220353fd77f2fb0029",
  "source": "pragma solidity ^0.4.16;\r\n\r\n/**\r\n    Copy of the LINK token to mock out transfers\r\n */\r\n\r\n/**\r\n * @title SafeMath\r\n * @dev Math operations with safety checks that throw on error\r\n */\r\nlibrary SafeMath {\r\n  function mul(uint256 a, uint256 b) internal constant returns (uint256) {\r\n    uint256 c = a * b;\r\n    assert(a == 0 || c / a == b);\r\n    return c;\r\n  }\r\n\r\n  function div(uint256 a, uint256 b) internal constant returns (uint256) {\r\n    // assert(b > 0); // Solidity automatically throws when dividing by 0\r\n    uint256 c = a / b;\r\n    // assert(a == b * c + a % b); // There is no case in which this doesn't hold\r\n    return c;\r\n  }\r\n\r\n  function sub(uint256 a, uint256 b) internal constant returns (uint256) {\r\n    assert(b <= a);\r\n    return a - b;\r\n  }\r\n\r\n  function add(uint256 a, uint256 b) internal constant returns (uint256) {\r\n    uint256 c = a + b;\r\n    assert(c >= a);\r\n    return c;\r\n  }\r\n}\r\n\r\n\r\n/**\r\n * @title ERC20Basic\r\n * @dev Simpler version of ERC20 interface\r\n * @dev see https://github.com/ethereum/EIPs/issues/179\r\n */\r\ncontract ERC20Basic {\r\n  uint256 public totalSupply;\r\n  function balanceOf(address who) constant returns (uint256);\r\n  function transfer(address to, uint256 value) returns (bool);\r\n  event Transfer(address indexed from, address indexed to, uint256 value);\r\n}\r\n/**\r\n * @title ERC20 interface\r\n * @dev see https://github.com/ethereum/EIPs/issues/20\r\n */\r\ncontract ERC20 is ERC20Basic {\r\n  function allowance(address owner, address spender) constant returns (uint256);\r\n  function transferFrom(address from, address to, uint256 value) returns (bool);\r\n  function approve(address spender, uint256 value) returns (bool);\r\n  event Approval(address indexed owner, address indexed spender, uint256 value);\r\n}\r\n\r\ncontract ERC677 is ERC20 {\r\n  function transferAndCall(address to, uint value, bytes data) returns (bool success);\r\n\r\n  event Transfer(address indexed from, address indexed to, uint value, bytes data);\r\n}\r\n\r\ncontract ERC677Receiver {\r\n  function onTokenTransfer(address _sender, uint _value, bytes _data);\r\n}\r\n\r\n/**\r\n * @title Basic token\r\n * @dev Basic version of StandardToken, with no allowances. \r\n */\r\ncontract BasicToken is ERC20Basic {\r\n  using SafeMath for uint256;\r\n\r\n  mapping(address => uint256) balances;\r\n\r\n  /**\r\n  * @dev transfer token for a specified address\r\n  * @param _to The address to transfer to.\r\n  * @param _value The amount to be transferred.\r\n  */\r\n  function transfer(address _to, uint256 _value) returns (bool) {\r\n    balances[msg.sender] = balances[msg.sender].sub(_value);\r\n    balances[_to] = balances[_to].add(_value);\r\n    Transfer(msg.sender, _to, _value);\r\n    return true;\r\n  }\r\n\r\n  /**\r\n  * @dev Gets the balance of the specified address.\r\n  * @param _owner The address to query the the balance of. \r\n  * @return An uint256 representing the amount owned by the passed address.\r\n  */\r\n  function balanceOf(address _owner) constant returns (uint256 balance) {\r\n    return balances[_owner];\r\n  }\r\n\r\n}\r\n\r\n\r\n/**\r\n * @title Standard ERC20 token\r\n *\r\n * @dev Implementation of the basic standard token.\r\n * @dev https://github.com/ethereum/EIPs/issues/20\r\n * @dev Based on code by FirstBlood: https://github.com/Firstbloodio/token/blob/master/smart_contract/FirstBloodToken.sol\r\n */\r\ncontract StandardToken is ERC20, BasicToken {\r\n\r\n  mapping (address => mapping (address => uint256)) allowed;\r\n\r\n\r\n  /**\r\n   * @dev Transfer tokens from one address to another\r\n   * @param _from address The address which you want to send tokens from\r\n   * @param _to address The address which you want to transfer to\r\n   * @param _value uint256 the amount of tokens to be transferred\r\n   */\r\n  function transferFrom(address _from, address _to, uint256 _value) returns (bool) {\r\n    var _allowance = allowed[_from][msg.sender];\r\n\r\n    // Check is not needed because sub(_allowance, _value) will already throw if this condition is not met\r\n    // require (_value <= _allowance);\r\n\r\n    balances[_from] = balances[_from].sub(_value);\r\n    balances[_to] = balances[_to].add(_value);\r\n    allowed[_from][msg.sender] = _allowance.sub(_value);\r\n    Transfer(_from, _to, _value);\r\n    return true;\r\n  }\r\n\r\n  /**\r\n   * @dev Approve the passed address to spend the specified amount of tokens on behalf of msg.sender.\r\n   * @param _spender The address which will spend the funds.\r\n   * @param _value The amount of tokens to be spent.\r\n   */\r\n  function approve(address _spender, uint256 _value) returns (bool) {\r\n    allowed[msg.sender][_spender] = _value;\r\n    Approval(msg.sender, _spender, _value);\r\n    return true;\r\n  }\r\n\r\n  /**\r\n   * @dev Function to check the amount of tokens that an owner allowed to a spender.\r\n   * @param _owner address The address which owns the funds.\r\n   * @param _spender address The address which will spend the funds.\r\n   * @return A uint256 specifying the amount of tokens still available for the spender.\r\n   */\r\n  function allowance(address _owner, address _spender) constant returns (uint256 remaining) {\r\n    return allowed[_owner][_spender];\r\n  }\r\n  \r\n    /*\r\n   * approve should be called when allowed[_spender] == 0. To increment\r\n   * allowed value is better to use this function to avoid 2 calls (and wait until \r\n   * the first transaction is mined)\r\n   * From MonolithDAO Token.sol\r\n   */\r\n  function increaseApproval (address _spender, uint _addedValue) \r\n    returns (bool success) {\r\n    allowed[msg.sender][_spender] = allowed[msg.sender][_spender].add(_addedValue);\r\n    Approval(msg.sender, _spender, allowed[msg.sender][_spender]);\r\n    return true;\r\n  }\r\n\r\n  function decreaseApproval (address _spender, uint _subtractedValue) returns (bool success) {\r\n    uint oldValue = allowed[msg.sender][_spender];\r\n    if (_subtractedValue > oldValue) {\r\n      allowed[msg.sender][_spender] = 0;\r\n    } else {\r\n      allowed[msg.sender][_spender] = oldValue.sub(_subtractedValue);\r\n    }\r\n    Approval(msg.sender, _spender, allowed[msg.sender][_spender]);\r\n    return true;\r\n  }\r\n\r\n}\r\n\r\ncontract ERC677Token is ERC677 {\r\n\r\n  /**\r\n  * @dev transfer token to a contract address with additional data if the recipient is a contact.\r\n  * @param _to The address to transfer to.\r\n  * @param _value The amount to be transferred.\r\n  * @param _data The extra data to be passed to the receiving contract.\r\n  */\r\n  function transferAndCall(address _to, uint _value, bytes _data)\r\n    public\r\n    returns (bool success)\r\n  {\r\n    super.transfer(_to, _value);\r\n    Transfer(msg.sender, _to, _value, _data);\r\n    if (isContract(_to)) {\r\n      contractFallback(_to, _value, _data);\r\n    }\r\n    return true;\r\n  }\r\n\r\n\r\n  // PRIVATE\r\n\r\n  function contractFallback(address _to, uint _value, bytes _data) private {\r\n    ERC677Receiver receiver = ERC677Receiver(_to);\r\n    receiver.onTokenTransfer(msg.sender, _value, _data);\r\n  }\r\n\r\n  function isContract(address _addr)\r\n    private\r\n    returns (bool hasCode)\r\n  {\r\n    uint length;\r\n    assembly { length := extcodesize(_addr) }\r\n    return length > 0;\r\n  }\r\n\r\n}\r\n\r\ncontract LinkToken is StandardToken, ERC677Token {\r\n\r\n  uint public constant totalSupply = 10**27;\r\n  string public constant name = 'TestLink Token';\r\n  uint8 public constant decimals = 18;\r\n  string public constant symbol = 'TINK';\r\n\r\n  function LinkToken() public {\r\n    balances[msg.sender] = totalSupply;\r\n  }\r\n\r\n  /**\r\n  * @dev transfer token to a specified address with additional data if the recipient is a contract.\r\n  * @param _to The address to transfer to.\r\n  * @param _value The amount to be transferred.\r\n  * @param _data The extra data to be passed to the receiving contract.\r\n  */\r\n  function transferAndCall(address _to, uint _value, bytes _data)\r\n    public\r\n    validRecipient(_to)\r\n    returns (bool success)\r\n  {\r\n    return super.transferAndCall(_to, _value, _data);\r\n  }\r\n\r\n  /**\r\n  * @dev transfer token to a specified address.\r\n  * @param _to The address to transfer to.\r\n  * @param _value The amount to be transferred.\r\n  */\r\n  function transfer(address _to, uint _value)\r\n    public\r\n    validRecipient(_to)\r\n    returns (bool success)\r\n  {\r\n    return super.transfer(_to, _value);\r\n  }\r\n\r\n  /**\r\n   * @dev Approve the passed address to spend the specified amount of tokens on behalf of msg.sender.\r\n   * @param _spender The address which will spend the funds.\r\n   * @param _value The amount of tokens to be spent.\r\n   */\r\n  function approve(address _spender, uint256 _value)\r\n    public\r\n    validRecipient(_spender)\r\n    returns (bool)\r\n  {\r\n    return super.approve(_spender,  _value);\r\n  }\r\n\r\n  /**\r\n   * @dev Transfer tokens from one address to another\r\n   * @param _from address The address which you want to send tokens from\r\n   * @param _to address The address which you want to transfer to\r\n   * @param _value uint256 the amount of tokens to be transferred\r\n   */\r\n  function transferFrom(address _from, address _to, uint256 _value)\r\n    public\r\n    validRecipient(_to)\r\n    returns (bool)\r\n  {\r\n    return super.transferFrom(_from, _to, _value);\r\n  }\r\n\r\n\r\n  // MODIFIERS\r\n\r\n  modifier validRecipient(address _recipient) {\r\n    require(_recipient != address(0) && _recipient != address(this));\r\n    _;\r\n  }\r\n\r\n}",
  "sourcePath": "/mnt/d/dev/gohodl/contracts/LinkToken.sol",
  "compiler": {
    "name": "solc",
    "version": "0.4.18+commit.9cf6e910.Emscripten.clang"
  },
  "schemaVersion": "1.0.1",
  "updatedAt": "2018-01-23T23:43:18.360Z"
}